:100000000C9486000C94B7000C94B7000C94B700C5
:100010000C94B7000C94B7000C94B7000C94B70084
:100020000C94B7000C94B7000C94B7000C94B70074
:100030000C94B7000C94B7000C94B7000C94B70064
:100040000C94B7000C94B7000C94B7000C94B70054
:100050000C94B7000C94B7000C94B7000C94E80310
:100060000C94B7000C945C040C9432040C94B7000C
:100070000C94B7000C94B7000C94B7000C94B70024
:100080000C94B7000C94B7000C94B7000C94B70014
:100090000C94B7000C94B7000C94B7000C94B70004
:1000A0000C94B7000C94B7000C94B7000C94B700F4
:1000B0000C94B7000C94B7000C94B7000C94B700E4
:1000C0000C94B7000C94B7000C94B7000C94B700D4
:1000D0000C94B7000C94B7000C94B7000C94B700C4
:1000E0000C94B7000C94BA000C9490010C94E700A7
:1000F0000C94DD010C9458010C94F6000C9441060C
:100100000C9492040C944A019204410611241FBEDF
:10011000CFEFD1E2DEBFCDBF00E00CBF23E0AEE900
:10012000B2E001C01D92A035B207E1F712E0A0E0F5
:10013000B2E0EEEBF1E100E00BBF02C007900D92E0
:10014000AE39B107D9F710E0C5E8D0E000E006C04D
:1001500021970109802FFE010E94AF06C438D10704
:1001600080E00807A9F70E94CB040C94CD080C94FA
:1001700000000895AF92BF92CF92DF92EF92FF926C
:100180000F931F93CF93DF936C017B018B01040FBF
:10019000151FEB015E01AE18BF08C017D10759F05B
:1001A0006991D601ED91FC910190F081E02DC6019D
:1001B0001995892B79F7C501DF91CF911F910F9187
:1001C000FF90EF90DF90CF90BF90AF900895FC012B
:1001D000538D448D252F30E0842F90E0821B930BAC
:1001E000541710F0CF96089501970895FC01918D52
:1001F000828D981761F0A28DAE0FBF2FB11D5D9655
:100200008C91928D9F5F9F73928F90E008958FEFF6
:100210009FEF08952FB7F8948091A5029091A602C0
:10022000A091A702B091A8022FBF8093B102909332
:10023000B202A093B302B093B40289EA92E00E94A2
:10024000F60097FF26C02FB7F8948091A5029091F1
:10025000A602A091A702B091A8022FBF4091B102BF
:100260005091B2026091B3027091B402841B950B5D
:10027000A60BB70B4091AD025091AE026091AF0258
:100280007091B00284179507A607B707B0F28FEFF9
:100290009FEF0895FC01918D828D981731F0828D2A
:1002A000E80FF11D858D90E008958FEF9FEF089581
:1002B000FC01918D228D892F90E0805C9F4F821BE5
:1002C00091098F739927089589EA92E00E94580155
:1002D00021E0892B09F420E0822F0895FC01A48DF0
:1002E000A80FB92FB11DA35ABF4F2C91848D90E058
:1002F00001968F739927848FA689B7892C93A0893B
:10030000B1898C91837080648C93938D848D9813C4
:1003100006C00288F389E02D80818F7D8083089557
:10032000EF92FF920F931F93CF93DF93EC0181E045
:10033000888F9B8D8C8D98131AC0E889F9898081EC
:1003400085FF15C09FB7F894EE89FF896083E8891F
:10035000F98980818370806480839FBF81E090E011
:10036000DF91CF911F910F91FF90EF900895F62E9E
:100370000B8D10E00F5F1F4F0F731127E02E8C8D38
:100380008E110CC00FB607FCFACFE889F98980817D
:1003900085FFF5CFCE010E946E01F1CFEB8DEC0F02
:1003A000FD2FF11DE35AFF4FF0829FB7F8940B8F9A
:1003B000EA89FB8980818062CFCFCF93DF93EC0104
:1003C000888D8823B9F0AA89BB89E889F9898C913D
:1003D00085FD03C0808186FD0DC00FB607FCF7CFF9
:1003E0008C9185FFF2CF808185FFEDCFCE010E94F9
:1003F0006E01E9CFDF91CF91089580E090E0892BE5
:1004000029F00E94640181110E94000080E090E0C8
:10041000892B49F080E090E0892B29F00E940000B0
:1004200081110E94000080E090E0892B49F080E07B
:1004300090E0892B29F00E94000081110E940000A9
:1004400080E090E0892B49F080E090E0892B29F052
:100450000E94000081110C9400000895FC0101909D
:100460000020E9F73197AF01481B590BBC0189EA1D
:1004700092E00C94BA008F929F92AF92BF920F932A
:100480001F93CF93DF93CDB7DEB7A1970FB6F89444
:10049000DEBF0FBECDBF19A2423008F44AE08E0184
:1004A0000F5D1F4F842E912CB12CA12CA50194011E
:1004B0000E948D06E62FB901CA01EA30F4F4E05D2E
:1004C000D801EE938D01232B242B252B79F790E077
:1004D00080E0109719F0CD010E942E02A1960FB670
:1004E000F894DEBF0FBECDBFDF91CF911F910F916A
:1004F000BF90AF909F908F900895E95CE1CFCF922D
:10050000DF92EF92FF92CF93DF936B017C016DE25C
:1005100089EA92E00E949001EC0166277727CB01DF
:100520006C197D098E099F094AE00E943B028C0FDD
:100530009D1FDF91CF91FF90EF90DF90CF900895B6
:10054000CF93DF930E942E02EC0188E192E00E949B
:100550002E028C0F9D1FDF91CF910895CF93DF93D3
:10056000EC0180914603909147030097E9F0688180
:10057000798161157105B1F04091480350914903AB
:100580002C813D814217530768F00E94C6088C8178
:100590009D8190934B0380934A031D821C82DF91BF
:1005A000CF9108950E9453078881998190934703C2
:1005B000809346038A819B819093490380934803EB
:1005C0008C819D8190934B0380934A0319821882FA
:1005D0001B821A82E2CFFC0180819181009711F089
:1005E0000C94530708958091460390914703009718
:1005F00011F00C94450660E070E0CB010895CF92B5
:10060000DF92EF92FF920F931F93CF93DF93E090CF
:100610004603F0904703E114F10439F0C0914A0316
:10062000D0914B038701209751F4DF91CF911F9117
:100630000F91FF90EF90DF90CF90089586016801B1
:100640008FEFC81AD80AF8018081082E000C990B88
:100650000E948106892B91F72197CE0DDF1D88819D
:10066000082E000C990B0E948106892B29F0C017D7
:10067000D10710F02197F3CFAE014F5F5F4F401BC2
:10068000510B50934B0340934A03E016F10620F4BC
:10069000B801C7010E94BD08E0914603F0914703ED
:1006A00080914A0390914B03E80FF91F1082BDCF50
:1006B0000F931F93CF93DF93EC018881998100976B
:1006C00059F02A813B812617370730F081E0DF910E
:1006D000CF911F910F9108958B016F5F7F4F0E9403
:1006E000DC07009759F0998388831B830A832C8148
:1006F0003D81232B59F7FC011082E8CF80E0E7CF42
:100700000F931F93CF93DF93EC018B010E9458034B
:1007100028813981811112C02115310519F0C901D3
:100720000E945307198218821D821C821B821A8222
:10073000CE01DF91CF911F910F9108951D830C83FE
:100740006AE172E0C9010E94C608F2CFEF92FF92FF
:100750000F931F93CF93DF931F921F92CDB7DEB7F6
:100760008C01FC0111821082138212821582148284
:1007700070E060E00E9480030E940A0197FD1EC0A5
:1007800089831A82F801E480F580FFEFEF1AFF0AEF
:10079000B701C8010E945803882371F3F801208132
:1007A000318184819581BE016F5F7F4F820F931FDE
:1007B0000E94C608F801F582E482DECFC8010F90DE
:1007C0000F90DF91CF911F910F91FF90EF900895BF
:1007D0001F920F920FB60F9211242F933F938F9376
:1007E0009F93AF93BF938091A5029091A602A09191
:1007F000A702B091A8023091A40223E0230F2D3765
:1008000058F50196A11DB11D2093A4028093A50265
:100810009093A602A093A702B093A8028091A00291
:100820009091A102A091A202B091A3020196A11DF4
:10083000B11D8093A0029093A102A093A202B09355
:10084000A302BF91AF919F918F913F912F910F90F4
:100850000FBE0F901F90189526E8230F0296A11D3A
:10086000B11DD2CF1F920F920FB60F9211240BB66B
:100870000F922F933F934F935F936F937F938F9339
:100880009F93AF93BF93EF93FF9389EA92E00E9407
:100890006E01FF91EF91BF91AF919F918F917F91E9
:1008A0006F915F914F913F912F910F900BBE0F90E1
:1008B0000FBE0F901F9018951F920F920FB60F92B8
:1008C00011240BB60F922F938F939F93EF93FF9367
:1008D000E091B902F091BA028081E091BF02F091FB
:1008E000C00282FD1DC090818091C2028F5F8F7314
:1008F0002091C302821741F0E091C202F0E0E75577
:10090000FD4F958F8093C202FF91EF919F918F9140
:100910002F910F900BBE0F900FBE0F901F90189548
:100920008081F2CFE9EAF2E01382128288EE93E04E
:10093000A0E0B0E084839583A683B7838AE092E049
:100940009183808385EC90E09587848784EC90E0A8
:100950009787868780EC90E0918B808B81EC90E08C
:10096000938B828B82EC90E0958B848B86EC90E06D
:10097000978B868B118E128E138E148EE6E4F3E025
:1009800011821082138212821582148270E060E05C
:10099000CF010C948003CF93DF9300D000D0CDB76C
:1009A000DEB7789484B5826084BD84B5816084BDEF
:1009B00085B5826085BD85B5816085BD80916E00FD
:1009C000816080936E00109281008091810082602E
:1009D000809381008091810081608093810080916B
:1009E00080008160809380008091B100846080935A
:1009F000B1008091B00081608093B000809191003F
:100A00008260809391008091910081608093910039
:100A1000809190008160809390008091A10082601D
:100A20008093A1008091A10081608093A1008091BA
:100A3000A00081608093A00080912101826080935A
:100A40002101809121018160809321018091200109
:100A500081608093200180917A00846080937A0085
:100A600080917A00826080937A0080917A00816020
:100A700080937A0080917A00806880937A00109247
:100A8000C100E091B902F091BA0282E08083E09166
:100A9000B502F091B6021082E091B702F091B8026F
:100AA0008FEC80831092C102E091BD02F091BE02F2
:100AB00086E08083E091BB02F091BC02808180617E
:100AC0008083E091BB02F091BC02808188608083CA
:100AD000E091BB02F091BC02808180688083E0914C
:100AE000BB02F091BC0280818F7D80838BE192E01C
:100AF0000E94A00283E392E00E94A00286E492E0BA
:100B00000E94A0028FE592E00E94A00289EA92E092
:100B10000E945801892BD1F389EA92E00E94580182
:100B2000892B79F0CE0101960E94A603CE01019691
:100B30000E94AE02CE0101960E94EB020E94FF02CB
:100B4000EBCF0E94F302613071058105910561F5DB
:100B50008CE692E00E94A00289EA92E00E9458018D
:100B6000892BD1F389EA92E00E945801892B79F010
:100B7000CE0101960E94A603CE0101960E94AE020C
:100B8000CE0101960E94EB020E94FF02EBCF0E9471
:100B9000F3028B019C01660F771F881F991F36FF98
:100BA00060C00E947F0260C06230710581059105BE
:100BB00009F064C082E892E00E94A00289EA92E013
:100BC0000E945801892BD1F389EA92E00E945801D2
:100BD000892B79F0CE0101960E94A603CE010196E1
:100BE0000E94AE02CE0101960E94EB020E94FF021B
:100BF000EBCF0E94F30270939F0260939E0280E904
:100C000092E00E94A00289EA92E00E945801892B9A
:100C1000D1F389EA92E00E945801892B79F0CE0144
:100C200001960E94A603CE0101960E94AE02CE015B
:100C300001960E94EB020E94FF02EBCF0E94F3029A
:100C400020919E0230919F02269FA001279F500D68
:100C5000369F500D1124BA01550F880B990B97FD43
:100C6000A0CF4AE00E943B0288E192E00E942E025F
:100C700070E060E086E493E00E9480030E94FD0142
:100C800035CF86E493E00C94EB021F93FC01992787
:100C90008827BC01E89411911032E9F3193010F063
:100CA0001E30C8F31B3251F01D3249F4689406C05F
:100CB0000E946C06610F711D811D911D11911053D1
:100CC0001A30B0F33EF490958095709561957F4F02
:100CD0008F4F9F4F1F910895592F482F372F262F41
:100CE000660F771F881F991F660F771F881F991F30
:100CF000620F731F841F951F660F771F881F991F30
:100D0000089591110C948A06803219F0895085500B
:100D1000C8F70895992788270895A1E21A2EAA1BDB
:100D2000BB1BFD010DC0AA1FBB1FEE1FFF1FA2179B
:100D3000B307E407F50720F0A21BB30BE40BF50B98
:100D4000661F771F881F991F1A9469F76095709521
:100D5000809590959B01AC01BD01CF010895EE0FE8
:100D6000FF1F881F8BBF0790F691E02D19940F93FA
:100D70001F93CF93DF938230910510F482E090E0CF
:100D8000E0914E03F0914F0330E020E0B0E0A0E0AE
:100D9000309799F42115310509F44AC0281B390B05
:100DA00024303105D8F58A819B816115710589F15F
:100DB000FB0193838283FE0111C040815181028136
:100DC000138148175907E0F04817590799F410970D
:100DD00061F012960C93129713961C933296CF01E2
:100DE000DF91CF911F910F91089500934E031093BF
:100DF0004F03F4CF2115310551F04217530738F056
:100E0000A901DB019A01BD01DF01F801C1CFEF01AA
:100E1000F9CF90934F0380934E03CDCFFE01E20FA5
:100E2000F31F819391932250310939832883D7CFBF
:100E300020914C0330914D03232B41F42091020269
:100E40003091030230934D0320934C032091000214
:100E5000309101022115310541F42DB73EB7409183
:100E6000040250910502241B350BE0914C03F091D4
:100E70004D03E217F307A0F42E1B3F0B2817390789
:100E800078F0AC014E5F5F4F2417350748F04E0FE6
:100E90005F1F50934D0340934C03819391939FCFD9
:100EA000F0E0E0E09CCFCF93DF930097E9F0FC0106
:100EB000329713821282A0914E03B0914F03ED013D
:100EC00030E020E01097A1F420813181820F931F40
:100ED00020914C0330914D032817390709F061C068
:100EE000F0934D03E0934C03DF91CF910895EA0115
:100EF000CE17DF07E8F54A815B819E014115510558
:100F0000B1F7E901FB83EA8349915991C40FD51FD9
:100F1000EC17FD0761F4808191810296840F951F83
:100F2000E90199838883828193819B838A83F0E09E
:100F3000E0E012968D919C9113970097B9F52D9151
:100F40003C911197CD010296820F931F20914C0383
:100F500030914D032817390739F6309751F5109223
:100F60004F0310924E03B0934D03A0934C03BCCF9C
:100F7000D383C28340815181840F951FC817D9073D
:100F800061F44E5F5F4F88819981480F591F5183EB
:100F900040838A819B81938382832115310509F0E7
:100FA000B0CFF0934F03E0934E039ECFFD01DC01E1
:100FB000C0CF13821282D7CF4F925F926F927F92EF
:100FC0008F929F92AF92BF92CF92DF92EF92FF9259
:100FD0000F931F93CF93DF938C01009799F4CB016C
:100FE000DF91CF911F910F91FF90EF90DF90CF9005
:100FF000BF90AF909F908F907F906F905F904F9039
:101000000C94B706FC01E60FF71F9C012250310932
:10101000E217F30708F4AEC0D901CD91DC91119726
:10102000C617D70720F1C530D10578F0CE01049757
:101030008617970750F0C61BD70B2297C193D19301
:101040006D937C93CF010E945307C801DF91CF912C
:101050001F910F91FF90EF90DF90CF90BF90AF90D6
:101060009F908F907F906F905F904F9008955B015D
:10107000AC1ABD0A4C018C0E9D1EA0914E03B0917E
:101080004F03512C412CF12CE12C109731F580911C
:101090004C0390914D038815990509F05CC04616E4
:1010A000570608F058C08091000290910102009705
:1010B00041F48DB79EB74091040250910502841B04
:1010C000950BE817F90708F055C0F0934D03E0932E
:1010D0004C03F90171836083B8CF8D919C91119776
:1010E00012966C90129713967C901397A815B905D9
:1010F00059F56C0142E0C40ED11CCA14DB0420F186
:10110000AC014A195B09DA011296159780F06282E8
:10111000738251834083D9016D937C93E114F10470
:1011200071F0D7011396FC93EE9312978ECF22960F
:101130008C0F9D1FF90191838083F301EFCFF09312
:101140004F03E0934E0381CF4816590608F42C0153
:101150007D01D3019ACFCB010E94B7067C01009795
:1011600049F0AE01B8010E94BD08C8010E945307B2
:1011700087016BCF10E000E068CFFB01DC0102C00B
:1011800001900D9241505040D8F70895FB01DC01C9
:1011900001900D920020E1F7089510E0C5E8D0E03D
:1011A00000E006C0802FFE010E94AF062196011DBF
:0E11B000C638D10780E00807A9F7F894FFCFF2
:1011BE00000050038000000000009001BA00E7001C
:1011CE00DD015801F6004A010D0A002A2A2A2AE8F2
:1011DE00AFB7E98089E68BA9E58A9FE883BD2A2A05
:1011EE002A2A00312D3EE59C86E99DA2E7A7AFE8AD
:1011FE00AEA1E7AE9700322D3EE995BFE696B9E572
:10120E00BDA2E99DA2E7A7AFE8AEA1E7AE97003376
:10121E002D3EE781AFE68EA7E588B600E8AFB7E8CA
:10122E00BE93E585A5E58D8AE5BE84E580BCEFBC61
:10123E009A00E8AFB7E8BE93E585A561EFBC9A00CA
:0E124E00E8AFB7E8BE93E585A562EFBC9A0055
:00000001FF
